{
  "_format": "hh-sol-artifact-1",
  "contractName": "SecretRecipeProtection",
  "sourceName": "contracts/SecretRecipeProtection.sol",
  "abi": [
    {
      "inputs": [],
      "stateMutability": "nonpayable",
      "type": "constructor"
    },
    {
      "inputs": [],
      "name": "HandlesAlreadySavedForRequestID",
      "type": "error"
    },
    {
      "inputs": [],
      "name": "InvalidKMSSignatures",
      "type": "error"
    },
    {
      "inputs": [],
      "name": "NoHandleFoundForRequestID",
      "type": "error"
    },
    {
      "anonymous": false,
      "inputs": [
        {
          "indexed": true,
          "internalType": "uint256",
          "name": "requestId",
          "type": "uint256"
        },
        {
          "indexed": true,
          "internalType": "address",
          "name": "requester",
          "type": "address"
        }
      ],
      "name": "AccessDenied",
      "type": "event"
    },
    {
      "anonymous": false,
      "inputs": [
        {
          "indexed": true,
          "internalType": "uint256",
          "name": "recipeId",
          "type": "uint256"
        },
        {
          "indexed": true,
          "internalType": "address",
          "name": "requester",
          "type": "address"
        }
      ],
      "name": "AccessGranted",
      "type": "event"
    },
    {
      "anonymous": false,
      "inputs": [
        {
          "indexed": true,
          "internalType": "uint256",
          "name": "requestId",
          "type": "uint256"
        },
        {
          "indexed": true,
          "internalType": "uint256",
          "name": "recipeId",
          "type": "uint256"
        },
        {
          "indexed": true,
          "internalType": "address",
          "name": "requester",
          "type": "address"
        }
      ],
      "name": "AccessRequested",
      "type": "event"
    },
    {
      "anonymous": false,
      "inputs": [
        {
          "indexed": true,
          "internalType": "address",
          "name": "chef",
          "type": "address"
        },
        {
          "indexed": false,
          "internalType": "string",
          "name": "name",
          "type": "string"
        }
      ],
      "name": "ChefRegistered",
      "type": "event"
    },
    {
      "anonymous": false,
      "inputs": [
        {
          "indexed": true,
          "internalType": "uint256",
          "name": "requestID",
          "type": "uint256"
        }
      ],
      "name": "DecryptionFulfilled",
      "type": "event"
    },
    {
      "anonymous": false,
      "inputs": [
        {
          "indexed": true,
          "internalType": "uint256",
          "name": "recipeId",
          "type": "uint256"
        },
        {
          "indexed": true,
          "internalType": "address",
          "name": "chef",
          "type": "address"
        },
        {
          "indexed": false,
          "internalType": "string",
          "name": "name",
          "type": "string"
        }
      ],
      "name": "RecipeCreated",
      "type": "event"
    },
    {
      "anonymous": false,
      "inputs": [
        {
          "indexed": true,
          "internalType": "uint256",
          "name": "recipeId",
          "type": "uint256"
        },
        {
          "indexed": true,
          "internalType": "address",
          "name": "viewer",
          "type": "address"
        }
      ],
      "name": "RecipeRevealed",
      "type": "event"
    },
    {
      "inputs": [
        {
          "internalType": "uint256",
          "name": "",
          "type": "uint256"
        }
      ],
      "name": "accessRequests",
      "outputs": [
        {
          "internalType": "uint256",
          "name": "recipeId",
          "type": "uint256"
        },
        {
          "internalType": "address",
          "name": "requester",
          "type": "address"
        },
        {
          "internalType": "uint256",
          "name": "amount",
          "type": "uint256"
        },
        {
          "internalType": "bool",
          "name": "approved",
          "type": "bool"
        },
        {
          "internalType": "bool",
          "name": "processed",
          "type": "bool"
        },
        {
          "internalType": "uint256",
          "name": "requestTime",
          "type": "uint256"
        }
      ],
      "stateMutability": "view",
      "type": "function"
    },
    {
      "inputs": [
        {
          "internalType": "uint256",
          "name": "_requestId",
          "type": "uint256"
        }
      ],
      "name": "approveAccess",
      "outputs": [],
      "stateMutability": "nonpayable",
      "type": "function"
    },
    {
      "inputs": [
        {
          "internalType": "address",
          "name": "_user",
          "type": "address"
        },
        {
          "internalType": "uint256",
          "name": "_recipeId",
          "type": "uint256"
        }
      ],
      "name": "checkRecipeAccess",
      "outputs": [
        {
          "internalType": "bool",
          "name": "",
          "type": "bool"
        }
      ],
      "stateMutability": "view",
      "type": "function"
    },
    {
      "inputs": [
        {
          "internalType": "address",
          "name": "",
          "type": "address"
        },
        {
          "internalType": "uint256",
          "name": "",
          "type": "uint256"
        }
      ],
      "name": "chefRecipes",
      "outputs": [
        {
          "internalType": "uint256",
          "name": "",
          "type": "uint256"
        }
      ],
      "stateMutability": "view",
      "type": "function"
    },
    {
      "inputs": [
        {
          "internalType": "address",
          "name": "",
          "type": "address"
        }
      ],
      "name": "chefs",
      "outputs": [
        {
          "internalType": "string",
          "name": "name",
          "type": "string"
        },
        {
          "internalType": "string",
          "name": "specialty",
          "type": "string"
        },
        {
          "internalType": "uint256",
          "name": "recipeCount",
          "type": "uint256"
        },
        {
          "internalType": "bool",
          "name": "verified",
          "type": "bool"
        },
        {
          "internalType": "uint256",
          "name": "reputation",
          "type": "uint256"
        }
      ],
      "stateMutability": "view",
      "type": "function"
    },
    {
      "inputs": [
        {
          "internalType": "uint256",
          "name": "_recipeId1",
          "type": "uint256"
        },
        {
          "internalType": "uint256",
          "name": "_recipeId2",
          "type": "uint256"
        }
      ],
      "name": "compareSpiceLevels",
      "outputs": [
        {
          "internalType": "bytes32",
          "name": "",
          "type": "bytes32"
        }
      ],
      "stateMutability": "nonpayable",
      "type": "function"
    },
    {
      "inputs": [
        {
          "internalType": "string",
          "name": "_name",
          "type": "string"
        },
        {
          "internalType": "string",
          "name": "_category",
          "type": "string"
        },
        {
          "internalType": "uint32",
          "name": "_ingredient1",
          "type": "uint32"
        },
        {
          "internalType": "uint32",
          "name": "_ingredient2",
          "type": "uint32"
        },
        {
          "internalType": "uint32",
          "name": "_ingredient3",
          "type": "uint32"
        },
        {
          "internalType": "uint8",
          "name": "_spiceLevel",
          "type": "uint8"
        },
        {
          "internalType": "uint32",
          "name": "_cookingTime",
          "type": "uint32"
        },
        {
          "internalType": "uint256",
          "name": "_accessPrice",
          "type": "uint256"
        },
        {
          "internalType": "bool",
          "name": "_isPublic",
          "type": "bool"
        }
      ],
      "name": "createSecretRecipe",
      "outputs": [],
      "stateMutability": "nonpayable",
      "type": "function"
    },
    {
      "inputs": [
        {
          "internalType": "uint256",
          "name": "_requestId",
          "type": "uint256"
        }
      ],
      "name": "denyAccess",
      "outputs": [],
      "stateMutability": "nonpayable",
      "type": "function"
    },
    {
      "inputs": [
        {
          "internalType": "address",
          "name": "_chef",
          "type": "address"
        }
      ],
      "name": "getChefProfile",
      "outputs": [
        {
          "internalType": "string",
          "name": "name",
          "type": "string"
        },
        {
          "internalType": "string",
          "name": "specialty",
          "type": "string"
        },
        {
          "internalType": "uint256",
          "name": "recipeCount",
          "type": "uint256"
        },
        {
          "internalType": "bool",
          "name": "verified",
          "type": "bool"
        },
        {
          "internalType": "uint256",
          "name": "reputation",
          "type": "uint256"
        }
      ],
      "stateMutability": "view",
      "type": "function"
    },
    {
      "inputs": [
        {
          "internalType": "address",
          "name": "_chef",
          "type": "address"
        }
      ],
      "name": "getChefRecipes",
      "outputs": [
        {
          "internalType": "uint256[]",
          "name": "",
          "type": "uint256[]"
        }
      ],
      "stateMutability": "view",
      "type": "function"
    },
    {
      "inputs": [],
      "name": "getRecipeCount",
      "outputs": [
        {
          "internalType": "uint256",
          "name": "",
          "type": "uint256"
        }
      ],
      "stateMutability": "view",
      "type": "function"
    },
    {
      "inputs": [
        {
          "internalType": "uint256",
          "name": "_recipeId",
          "type": "uint256"
        }
      ],
      "name": "getRecipeInfo",
      "outputs": [
        {
          "internalType": "string",
          "name": "name",
          "type": "string"
        },
        {
          "internalType": "string",
          "name": "category",
          "type": "string"
        },
        {
          "internalType": "address",
          "name": "chef",
          "type": "address"
        },
        {
          "internalType": "bool",
          "name": "isPublic",
          "type": "bool"
        },
        {
          "internalType": "uint256",
          "name": "accessPrice",
          "type": "uint256"
        },
        {
          "internalType": "uint256",
          "name": "createdAt",
          "type": "uint256"
        }
      ],
      "stateMutability": "view",
      "type": "function"
    },
    {
      "inputs": [
        {
          "internalType": "address",
          "name": "",
          "type": "address"
        },
        {
          "internalType": "uint256",
          "name": "",
          "type": "uint256"
        }
      ],
      "name": "hasAccess",
      "outputs": [
        {
          "internalType": "bool",
          "name": "",
          "type": "bool"
        }
      ],
      "stateMutability": "view",
      "type": "function"
    },
    {
      "inputs": [
        {
          "internalType": "uint256",
          "name": "_recipeId",
          "type": "uint256"
        }
      ],
      "name": "makeRecipePublic",
      "outputs": [],
      "stateMutability": "nonpayable",
      "type": "function"
    },
    {
      "inputs": [],
      "name": "nextRecipeId",
      "outputs": [
        {
          "internalType": "uint256",
          "name": "",
          "type": "uint256"
        }
      ],
      "stateMutability": "view",
      "type": "function"
    },
    {
      "inputs": [],
      "name": "nextRequestId",
      "outputs": [
        {
          "internalType": "uint256",
          "name": "",
          "type": "uint256"
        }
      ],
      "stateMutability": "view",
      "type": "function"
    },
    {
      "inputs": [],
      "name": "owner",
      "outputs": [
        {
          "internalType": "address",
          "name": "",
          "type": "address"
        }
      ],
      "stateMutability": "view",
      "type": "function"
    },
    {
      "inputs": [
        {
          "internalType": "uint256",
          "name": "requestId",
          "type": "uint256"
        },
        {
          "internalType": "bytes",
          "name": "cleartexts",
          "type": "bytes"
        },
        {
          "internalType": "bytes",
          "name": "decryptionProof",
          "type": "bytes"
        }
      ],
      "name": "processRecipeReveal",
      "outputs": [],
      "stateMutability": "nonpayable",
      "type": "function"
    },
    {
      "inputs": [],
      "name": "protocolId",
      "outputs": [
        {
          "internalType": "uint256",
          "name": "",
          "type": "uint256"
        }
      ],
      "stateMutability": "pure",
      "type": "function"
    },
    {
      "inputs": [
        {
          "internalType": "uint256",
          "name": "",
          "type": "uint256"
        }
      ],
      "name": "recipes",
      "outputs": [
        {
          "internalType": "string",
          "name": "name",
          "type": "string"
        },
        {
          "internalType": "string",
          "name": "category",
          "type": "string"
        },
        {
          "internalType": "address",
          "name": "chef",
          "type": "address"
        },
        {
          "internalType": "euint32",
          "name": "secretIngredient1",
          "type": "bytes32"
        },
        {
          "internalType": "euint32",
          "name": "secretIngredient2",
          "type": "bytes32"
        },
        {
          "internalType": "euint32",
          "name": "secretIngredient3",
          "type": "bytes32"
        },
        {
          "internalType": "euint8",
          "name": "secretSpiceLevel",
          "type": "bytes32"
        },
        {
          "internalType": "euint32",
          "name": "secretCookingTime",
          "type": "bytes32"
        },
        {
          "internalType": "bool",
          "name": "isPublic",
          "type": "bool"
        },
        {
          "internalType": "bool",
          "name": "exists",
          "type": "bool"
        },
        {
          "internalType": "uint256",
          "name": "createdAt",
          "type": "uint256"
        },
        {
          "internalType": "uint256",
          "name": "accessPrice",
          "type": "uint256"
        }
      ],
      "stateMutability": "view",
      "type": "function"
    },
    {
      "inputs": [
        {
          "internalType": "string",
          "name": "_name",
          "type": "string"
        },
        {
          "internalType": "string",
          "name": "_specialty",
          "type": "string"
        }
      ],
      "name": "registerChef",
      "outputs": [],
      "stateMutability": "nonpayable",
      "type": "function"
    },
    {
      "inputs": [
        {
          "internalType": "uint256",
          "name": "_recipeId",
          "type": "uint256"
        }
      ],
      "name": "requestRecipeAccess",
      "outputs": [],
      "stateMutability": "payable",
      "type": "function"
    },
    {
      "inputs": [
        {
          "internalType": "uint256",
          "name": "_recipeId",
          "type": "uint256"
        }
      ],
      "name": "revealRecipeSecrets",
      "outputs": [],
      "stateMutability": "nonpayable",
      "type": "function"
    },
    {
      "inputs": [
        {
          "internalType": "uint256",
          "name": "_recipeId",
          "type": "uint256"
        },
        {
          "internalType": "uint256",
          "name": "_newPrice",
          "type": "uint256"
        }
      ],
      "name": "updateAccessPrice",
      "outputs": [],
      "stateMutability": "nonpayable",
      "type": "function"
    }
  ],
  "bytecode": "0x608060405234801561001057600080fd5b5061018c6100b0604080516080810182526000808252602082018190529181018290526060810191909152506040805160808101825273687820221192c5b662b25367f70076a37bc79b6c815273848b0066793bcc60346da1f49049357399b8d595602082015273a02cda4ca3a71d7c46997716f4283aa851c2881291810191909152731364cbbf2cdf5032c47d8226a6f6fbd2afcdacac606082015290565b80517f9e7b61f58c47dc699ac88507c4f5bb9f121c03808c5676a8078fe583e464970080546001600160a01b03199081166001600160a01b039384161790915560208301517f9e7b61f58c47dc699ac88507c4f5bb9f121c03808c5676a8078fe583e46497018054831691841691909117905560408301517f9e7b61f58c47dc699ac88507c4f5bb9f121c03808c5676a8078fe583e46497028054831691841691909117905560608301517f9e7b61f58c47dc699ac88507c4f5bb9f121c03808c5676a8078fe583e46497038054909216921691909117905550565b600080546001600160a01b031916331790556001808055600755612b4d806101b56000396000f3fe60806040526004361061014b5760003560e01c80638aba3311116100b6578063c6530e411161006f578063c6530e4114610472578063ca28d6b9146104ad578063cc9a0c41146104cd578063cd641c3f146104ed578063da1f12ab1461050d578063e821cc721461052257600080fd5b80638aba33111461032a5780638ca91a9a1461034a5780638da5cb5b146103e55780639dc6d31e1461041d578063a7da7a3314610432578063afb70df81461045257600080fd5b8063531bf99411610108578063531bf99414610238578063568497bb14610269578063687e2f39146102895780636a84a985146102a95780636bf6f84b146102cd578063831b91a0146102fd57600080fd5b80631805220f14610150578063237f7f991461017257806326e7285414610192578063311003e6146101cd578063443c227c146101e05780634fc175bc14610218575b600080fd5b34801561015c57600080fd5b5061017061016b36600461222d565b610538565b005b34801561017e57600080fd5b5061017061018d3660046122e9565b6105d5565b34801561019e57600080fd5b506101b26101ad36600461222d565b610747565b6040516101c49695949392919061239d565b60405180910390f35b6101706101db36600461222d565b6108f9565b3480156101ec57600080fd5b506102006101fb36600461222d565b610b2f565b6040516101c49c9b9a999897969594939291906123f1565b34801561022457600080fd5b50610170610233366004612476565b610cad565b34801561024457600080fd5b506102586102533660046124b4565b610d38565b6040516101c49594939291906124cf565b34801561027557600080fd5b5061017061028436600461222d565b610e7c565b34801561029557600080fd5b506101706102a436600461222d565b61106d565b3480156102b557600080fd5b506102bf60075481565b6040519081526020016101c4565b3480156102d957600080fd5b506102ed6102e8366004612512565b61119f565b60405190151581526020016101c4565b34801561030957600080fd5b5061031d6103183660046124b4565b611213565b6040516101c4919061253c565b34801561033657600080fd5b5061017061034536600461222d565b61127f565b34801561035657600080fd5b506103ac61036536600461222d565b60046020819052600091825260409091208054600182015460028301546003840154939094015491936001600160a01b0390911692909160ff808316926101009004169086565b604080519687526001600160a01b03909516602087015293850192909252151560608401521515608083015260a082015260c0016101c4565b3480156103f157600080fd5b50600054610405906001600160a01b031681565b6040516001600160a01b0390911681526020016101c4565b34801561042957600080fd5b506102bf611462565b34801561043e57600080fd5b506102bf61044d366004612512565b611477565b34801561045e57600080fd5b5061025861046d3660046124b4565b6114a8565b34801561047e57600080fd5b506102ed61048d366004612512565b600560209081526000928352604080842090915290825290205460ff1681565b3480156104b957600080fd5b506101706104c83660046125d3565b611617565b3480156104d957600080fd5b506102bf6104e8366004612476565b61191e565b3480156104f957600080fd5b506101706105083660046126a9565b611a6f565b34801561051957600080fd5b506127116102bf565b34801561052e57600080fd5b506102bf60015481565b6000818152600260208190526040909120015481906001600160a01b0316331461057d5760405162461bcd60e51b815260040161057490612716565b60405180910390fd5b6000828152600260205260409020600801548290610100900460ff166105b55760405162461bcd60e51b815260040161057490612740565b50506000908152600260205260409020600801805460ff19166001179055565b600082511161061d5760405162461bcd60e51b81526020600482015260146024820152734e616d652063616e6e6f7420626520656d70747960601b6044820152606401610574565b336000908152600360208190526040909120015460ff16156106815760405162461bcd60e51b815260206004820152601760248201527f4368656620616c726561647920726567697374657265640000000000000000006044820152606401610574565b6040805160a081018252838152602080820184905260008284018190526001606084015260646080840152338152600390915291909120815181906106c690826127f9565b50602082015160018201906106db90826127f9565b506040828101516002830155606083015160038301805460ff19169115159190911790556080909201516004909101555133907f6422179f149bf2b3947d44ebcb5a2c01db42d1242aa243c74a31235258c840c29061073b9085906128b9565b60405180910390a25050565b60008181526002602052604081206008015460609182918190819081908790610100900460ff1661078a5760405162461bcd60e51b815260040161057490612740565b6000888152600260208190526040909120908101546008820154600a83015460098401548454859460018601946001600160a01b039091169360ff90911692909186906107d69061276f565b80601f01602080910402602001604051908101604052809291908181526020018280546108029061276f565b801561084f5780601f106108245761010080835404028352916020019161084f565b820191906000526020600020905b81548152906001019060200180831161083257829003601f168201915b505050505095508480546108629061276f565b80601f016020809104026020016040519081016040528092919081815260200182805461088e9061276f565b80156108db5780601f106108b0576101008083540402835291602001916108db565b820191906000526020600020905b8154815290600101906020018083116108be57829003601f168201915b50505050509450975097509750975097509750505091939550919395565b6000818152600260205260409020600801548190610100900460ff166109315760405162461bcd60e51b815260040161057490612740565b6000828152600260205260409020600881015460ff16156109945760405162461bcd60e51b815260206004820152601860248201527f52656369706520697320616c7265616479207075626c696300000000000000006044820152606401610574565b33600090815260056020908152604080832086845290915290205460ff16156109f45760405162461bcd60e51b8152602060048201526012602482015271416c7265616479206861732061636365737360701b6044820152606401610574565b80600a0154341015610a3f5760405162461bcd60e51b8152602060048201526014602482015273125b9cdd59999a58da595b9d081c185e5b595b9d60621b6044820152606401610574565b6040805160c08101825284815233602080830182815234848601908152600060608601818152608087018281524260a089019081526007805485526004978890528a852099518a55955160018a0180546001600160a01b03929092166001600160a01b0319909216919091179055935160028901559051600388018054925115156101000261ff00199215159290921661ffff199093169290921717905590519490920193909355915492519092869290917ff4cbeb9b7d632026093d9d6555eab7e2834d40c0672da209951f2184457455819190a460078054906000610b25836128e2565b9190505550505050565b600260205260009081526040902080548190610b4a9061276f565b80601f0160208091040260200160405190810160405280929190818152602001828054610b769061276f565b8015610bc35780601f10610b9857610100808354040283529160200191610bc3565b820191906000526020600020905b815481529060010190602001808311610ba657829003601f168201915b505050505090806001018054610bd89061276f565b80601f0160208091040260200160405190810160405280929190818152602001828054610c049061276f565b8015610c515780601f10610c2657610100808354040283529160200191610c51565b820191906000526020600020905b815481529060010190602001808311610c3457829003601f168201915b50505050600283015460038401546004850154600586015460068701546007880154600889015460098a0154600a909a015498996001600160a01b0390971698959750939592949193909260ff8083169361010090930416918c565b6000828152600260208190526040909120015482906001600160a01b03163314610ce95760405162461bcd60e51b815260040161057490612716565b6000838152600260205260409020600801548390610100900460ff16610d215760405162461bcd60e51b815260040161057490612740565b5050600091825260026020526040909120600a0155565b600360205260009081526040902080548190610d539061276f565b80601f0160208091040260200160405190810160405280929190818152602001828054610d7f9061276f565b8015610dcc5780601f10610da157610100808354040283529160200191610dcc565b820191906000526020600020905b815481529060010190602001808311610daf57829003601f168201915b505050505090806001018054610de19061276f565b80601f0160208091040260200160405190810160405280929190818152602001828054610e0d9061276f565b8015610e5a5780601f10610e2f57610100808354040283529160200191610e5a565b820191906000526020600020905b815481529060010190602001808311610e3d57829003601f168201915b50505050600283015460038401546004909401549293909260ff909116915085565b60008181526004602052604090206003810154610100900460ff1615610ee05760405162461bcd60e51b815260206004820152601960248201527814995c5d595cdd08185b1c9958591e481c1c9bd8d95cdcd959603a1b6044820152606401610574565b8054600090815260026020819052604090912001546001600160a01b03163314610f1c5760405162461bcd60e51b815260040161057490612716565b6003818101805461ffff1916610101179055600180830180546001600160a01b039081166000908152600560209081526040808320885484528252808320805460ff1916909617909555865482526002905292909220928301549054610f829216611aa5565b5060048101546001830154610fa091906001600160a01b0316611aa5565b5060058101546001830154610fbe91906001600160a01b0316611aa5565b5060068101546001830154610fdc91906001600160a01b0316611aa5565b5060078101546001830154610ffa91906001600160a01b0316611aa5565b506002820154604051339180156108fc02916000818181858888f1935050505015801561102b573d6000803e3d6000fd5b50600182015482546040516001600160a01b03909216917f3c3a9147a1fc73dd51a32f4d10c43d457e8cb826eb6f35cac6349eb965ba82b490600090a3505050565b60008181526004602052604090206003810154610100900460ff16156110d15760405162461bcd60e51b815260206004820152601960248201527814995c5d595cdd08185b1c9958591e481c1c9bd8d95cdcd959603a1b6044820152606401610574565b8054600090815260026020819052604090912001546001600160a01b0316331461110d5760405162461bcd60e51b815260040161057490612716565b60038101805461ffff1916610100179055600181015460028201546040516001600160a01b039092169181156108fc0291906000818181858888f1935050505015801561115e573d6000803e3d6000fd5b5060018101546040516001600160a01b039091169083907fc14f92ab7742ff4ef0fc5f742c674ac214ad556477ed325129ce31664896655090600090a35050565b6001600160a01b038216600090815260056020908152604080832084845290915281205460ff16806111ee5750600082815260026020819052604090912001546001600160a01b038481169116145b8061120a575060008281526002602052604090206008015460ff165b90505b92915050565b6001600160a01b03811660009081526006602090815260409182902080548351818402810184019094528084526060939283018282801561127357602002820191906000526020600020905b81548152602001906001019080831161125f575b50505050509050919050565b6000818152600260205260409020600801548190610100900460ff166112b75760405162461bcd60e51b815260040161057490612740565b6000828152600260205260409020600881015460ff16806112f2575033600090815260056020908152604080832086845290915290205460ff165b80611309575060028101546001600160a01b031633145b61134b5760405162461bcd60e51b81526020600482015260136024820152724e6f2061636365737320746f2072656369706560681b6044820152606401610574565b60408051600580825260c082019092526000916020820160a080368337505050600383015490915081600081518110611386576113866128fb565b60209081029190910101526004820154816001815181106113a9576113a96128fb565b60209081029190910101526005820154816002815181106113cc576113cc6128fb565b60209081029190910101526006820154816003815181106113ef576113ef6128fb565b6020908102919091010152600782015481600481518110611412576114126128fb565b602090810291909101015261142e8163cd641c3f60e01b611ab8565b50604051339085907f480c015278ade2909fa5887a366520b2d41d2169873b3cfe5668a1352319aa2b90600090a350505050565b6000600180546114729190612911565b905090565b6006602052816000526040600020818154811061149357600080fd5b90600052602060002001600091509150505481565b6001600160a01b03811660009081526003602081905260408220600281015491810154600482015482546060958695909485948594919384936001850193909260ff169185906114f79061276f565b80601f01602080910402602001604051908101604052809291908181526020018280546115239061276f565b80156115705780601f1061154557610100808354040283529160200191611570565b820191906000526020600020905b81548152906001019060200180831161155357829003601f168201915b505050505094508380546115839061276f565b80601f01602080910402602001604051908101604052809291908181526020018280546115af9061276f565b80156115fc5780601f106115d1576101008083540402835291602001916115fc565b820191906000526020600020905b8154815290600101906020018083116115df57829003601f168201915b50505050509350955095509550955095505091939590929450565b336000908152600360208190526040909120015460ff166116705760405162461bcd60e51b815260206004820152601360248201527210da1959881b9bdd081c9959da5cdd195c9959606a1b6044820152606401610574565b60008951116116b85760405162461bcd60e51b8152602060048201526014602482015273149958da5c19481b985b59481c995c5d5a5c995960621b6044820152606401610574565b600a8460ff16111561170c5760405162461bcd60e51b815260206004820152601860248201527f5370696365206c6576656c206d75737420626520302d313000000000000000006044820152606401610574565b600060015490506040518061018001604052808b81526020018a8152602001336001600160a01b031681526020016117438a611ac6565b815260200161175189611ac6565b815260200161175f88611ac6565b815260200161176d87611ad9565b815260200161177b86611ac6565b8152831515602080830191909152600160408084019190915242606084015260809092018690526000848152600290915220815181906117bb90826127f9565b50602082015160018201906117d090826127f9565b5060408201516002820180546001600160a01b0319166001600160a01b03909216919091179055606082015160038201556080820151600482015560a0820151600582015560c0820151600682015560e082015160078201556101008083015160088301805461012086015161ffff1990911692151561ff00191692909217911515909202179055610140820151600982015561016090910151600a9091015561187981611ae9565b336000818152600660209081526040808320805460018101825590845282842001859055928252600390529081206002018054916118b6836128e2565b9190505550336001600160a01b0316817fedc672ad36c4bd77a4676f4c3b996589133ba9711acb29d027ec6f10abfd44f48c6040516118f591906128b9565b60405180910390a36001805490600061190d836128e2565b919050555050505050505050505050565b33600090815260056020908152604080832085845290915281205460ff16806119615750600083815260026020819052604090912001546001600160a01b031633145b6119ad5760405162461bcd60e51b815260206004820152601960248201527f4e6f2061636365737320746f20666972737420726563697065000000000000006044820152606401610574565b33600090815260056020908152604080832085845290915290205460ff16806119f05750600082815260026020819052604090912001546001600160a01b031633145b611a3c5760405162461bcd60e51b815260206004820152601a60248201527f4e6f2061636365737320746f207365636f6e64207265636970650000000000006044820152606401610574565b6000838152600260205260408082206006908101548584529183200154611a639190611bd8565b9050805b949350505050565b611a7a838383611c0a565b600080600080600086806020019051810190611a969190612924565b50505050505050505050505050565b6000611ab18383611c76565b5090919050565b600061120a83836000611cf3565b600061120d8263ffffffff166004611e19565b600061120d8260ff166002611e19565b60008181526002602052604090206003810154611b0590611ec0565b50611b138160040154611ec0565b50611b218160050154611ec0565b50611b2f8160060154611ec0565b50611b3d8160070154611ec0565b5060038101546002820154611b5b91906001600160a01b0316611aa5565b5060048101546002820154611b7991906001600160a01b0316611aa5565b5060058101546002820154611b9791906001600160a01b0316611aa5565b5060068101546002820154611bb591906001600160a01b0316611aa5565b5060078101546002820154611bd391906001600160a01b0316611aa5565b505050565b600082611bec57611be96000611ad9565b92505b81611bfe57611bfb6000611ad9565b91505b61120a83836000611ed0565b6000611c1584611f8c565b90506000611c24828585612061565b905080611c445760405163cf6c44e960e01b815260040160405180910390fd5b60405185907f1af0453083661051f6e56e5c070792320652e612154bf9af8637bb1e7655b99d90600090a25050505050565b6000600080516020612af88339815191528054604051635ca4b5b160e11b8152600481018690526001600160a01b03858116602483015292935091169063b9496b6290604401600060405180830381600087803b158015611cd657600080fd5b505af1158015611cea573d6000803e3d6000fd5b50505050505050565b7f878245876662ba28a480c5ea71726db859fb50222b0a3d7cbbc21cfa336faf008054600080516020612af88339815191528054604051637d6e912360e11b81529293926001600160a01b039091169063fadd224690611d579089906004016129d5565b600060405180830381600087803b158015611d7157600080fd5b505af1158015611d85573d6000803e3d6000fd5b5050506002820154604051633263b83b60e01b81526001600160a01b039091169150633263b83b908690611dc19087908b908b906004016129e8565b6000604051808303818588803b158015611dda57600080fd5b505af1158015611dee573d6000803e3d6000fd5b5050505050611dfd8387612141565b8154826000611e0b836128e2565b919050555050509392505050565b7f9e7b61f58c47dc699ac88507c4f5bb9f121c03808c5676a8078fe583e464970154604051639cd07acb60e01b8152600091600080516020612af8833981519152916001600160a01b0390911690639cd07acb90611e7d9087908790600401612a1a565b6020604051808303816000875af1158015611e9c573d6000803e3d6000fd5b505050506040513d601f19601f82011682018060405250810190611a679190612a4c565b6000611ecc8230611c76565b5090565b6000808215611ee45750600160f81b611ee8565b5060005b6000600080516020612af883398151915260018101546040516385362ee760e01b815260048101899052602481018890526001600160f81b0319851660448201529192506001600160a01b0316906385362ee7906064016020604051808303816000875af1158015611f5e573d6000803e3d6000fd5b505050506040513d601f19601f82011682018060405250810190611f829190612a4c565b9695505050505050565b60008181527f878245876662ba28a480c5ea71726db859fb50222b0a3d7cbbc21cfa336faf0160205260408120546060917f878245876662ba28a480c5ea71726db859fb50222b0a3d7cbbc21cfa336faf00919003611ffe5760405163d66ca67560e01b815260040160405180910390fd5b60008381526001820160209081526040918290208054835181840281018401909452808452909183018282801561205457602002820191906000526020600020905b815481526020019060010190808311612040575b5050505050915050919050565b600080835160206120729190612a65565b61207d906020612a65565b905060008482604051602001612094929190612a78565b604051602081830303815290604052905060006120bc600080516020612af883398151915290565b60038101546040516378542ead60e01b81529192506001600160a01b0316906378542ead906120f3908a9086908a90600401612a9a565b6020604051808303816000875af1158015612112573d6000803e3d6000fd5b505050506040513d601f19601f820116820180604052508101906121369190612ad3565b979650505050505050565b60008281527f878245876662ba28a480c5ea71726db859fb50222b0a3d7cbbc21cfa336faf0160205260409020547f878245876662ba28a480c5ea71726db859fb50222b0a3d7cbbc21cfa336faf0090156121af57604051633f06d22b60e01b815260040160405180910390fd5b6000838152600182016020908152604090912083516121d0928501906121d6565b50505050565b828054828255906000526020600020908101928215612211579160200282015b828111156122115782518255916020019190600101906121f6565b50611ecc9291505b80821115611ecc5760008155600101612219565b60006020828403121561223f57600080fd5b5035919050565b634e487b7160e01b600052604160045260246000fd5b600082601f83011261226d57600080fd5b813567ffffffffffffffff8082111561228857612288612246565b604051601f8301601f19908116603f011681019082821181831017156122b0576122b0612246565b816040528381528660208588010111156122c957600080fd5b836020870160208301376000602085830101528094505050505092915050565b600080604083850312156122fc57600080fd5b823567ffffffffffffffff8082111561231457600080fd5b6123208683870161225c565b9350602085013591508082111561233657600080fd5b506123438582860161225c565b9150509250929050565b60005b83811015612368578181015183820152602001612350565b50506000910152565b6000815180845261238981602086016020860161234d565b601f01601f19169290920160200192915050565b60c0815260006123b060c0830189612371565b82810360208401526123c28189612371565b6001600160a01b0397909716604084015250509215156060840152608083019190915260a09091015292915050565b6101808152600061240661018083018f612371565b8281036020840152612418818f612371565b6001600160a01b039d909d16604084015250506060810199909952608089019790975260a088019590955260c087019390935260e0860191909152151561010085015215156101208401526101408301526101609091015292915050565b6000806040838503121561248957600080fd5b50508035926020909101359150565b80356001600160a01b03811681146124af57600080fd5b919050565b6000602082840312156124c657600080fd5b61120a82612498565b60a0815260006124e260a0830188612371565b82810360208401526124f48188612371565b60408401969096525050911515606083015260809091015292915050565b6000806040838503121561252557600080fd5b61252e83612498565b946020939093013593505050565b6020808252825182820181905260009190848201906040850190845b8181101561257457835183529284019291840191600101612558565b50909695505050505050565b63ffffffff8116811461259257600080fd5b50565b80356124af81612580565b60ff8116811461259257600080fd5b80356124af816125a0565b801515811461259257600080fd5b80356124af816125ba565b60008060008060008060008060006101208a8c0312156125f257600080fd5b893567ffffffffffffffff8082111561260a57600080fd5b6126168d838e0161225c565b9a5060208c013591508082111561262c57600080fd5b506126398c828d0161225c565b98505060408a013561264a81612580565b965060608a013561265a81612580565b955061266860808b01612595565b945061267660a08b016125af565b935061268460c08b01612595565b925060e08a0135915061269a6101008b016125c8565b90509295985092959850929598565b6000806000606084860312156126be57600080fd5b83359250602084013567ffffffffffffffff808211156126dd57600080fd5b6126e98783880161225c565b935060408601359150808211156126ff57600080fd5b5061270c8682870161225c565b9150509250925092565b60208082526010908201526f2737ba103932b1b4b8329037bbb732b960811b604082015260600190565b602080825260159082015274149958da5c1948191bd95cc81b9bdd08195e1a5cdd605a1b604082015260600190565b600181811c9082168061278357607f821691505b6020821081036127a357634e487b7160e01b600052602260045260246000fd5b50919050565b601f821115611bd3576000816000526020600020601f850160051c810160208610156127d25750805b601f850160051c820191505b818110156127f1578281556001016127de565b505050505050565b815167ffffffffffffffff81111561281357612813612246565b61282781612821845461276f565b846127a9565b602080601f83116001811461285c57600084156128445750858301515b600019600386901b1c1916600185901b1785556127f1565b600085815260208120601f198616915b8281101561288b5788860151825594840194600190910190840161286c565b50858210156128a95787850151600019600388901b60f8161c191681555b5050505050600190811b01905550565b60208152600061120a6020830184612371565b634e487b7160e01b600052601160045260246000fd5b6000600182016128f4576128f46128cc565b5060010190565b634e487b7160e01b600052603260045260246000fd5b8181038181111561120d5761120d6128cc565b600080600080600060a0868803121561293c57600080fd5b855161294781612580565b602087015190955061295881612580565b604087015190945061296981612580565b606087015190935061297a816125a0565b608087015190925061298b81612580565b809150509295509295909350565b60008151808452602080850194506020840160005b838110156129ca578151875295820195908201906001016129ae565b509495945050505050565b60208152600061120a6020830184612999565b838152606060208201526000612a016060830185612999565b905063ffffffff60e01b83166040830152949350505050565b8281526040810160548310612a3f57634e487b7160e01b600052602160045260246000fd5b8260208301529392505050565b600060208284031215612a5e57600080fd5b5051919050565b8082018082111561120d5761120d6128cc565b60008351612a8a81846020880161234d565b9190910191825250602001919050565b606081526000612aad6060830186612999565b8281036020840152612abf8186612371565b90508281036040840152611f828185612371565b600060208284031215612ae557600080fd5b8151612af0816125ba565b939250505056fe9e7b61f58c47dc699ac88507c4f5bb9f121c03808c5676a8078fe583e4649700a264697066735822122058042e531689a4241bbcd7075db8292c2e5abc63669bce606a2bf3395671243264736f6c63430008180033",
  "linkReferences": {},
  "deployedLinkReferences": {}
}